{
  "_format": "hh-sol-artifact-1",
  "contractName": "SimpleAddressCore",
  "sourceName": "contracts/SimpleAddressCore.sol",
  "abi": [
    {
      "anonymous": false,
      "inputs": [
        {
          "indexed": false,
          "internalType": "address",
          "name": "meta",
          "type": "address"
        },
        {
          "indexed": false,
          "internalType": "address",
          "name": "sub",
          "type": "address"
        },
        {
          "indexed": false,
          "internalType": "address",
          "name": "sender",
          "type": "address"
        }
      ],
      "name": "Approved",
      "type": "event"
    },
    {
      "anonymous": false,
      "inputs": [
        {
          "indexed": false,
          "internalType": "address",
          "name": "addr1",
          "type": "address"
        },
        {
          "indexed": false,
          "internalType": "address",
          "name": "addr2",
          "type": "address"
        },
        {
          "indexed": false,
          "internalType": "address",
          "name": "sender",
          "type": "address"
        }
      ],
      "name": "Associated",
      "type": "event"
    },
    {
      "anonymous": false,
      "inputs": [
        {
          "indexed": false,
          "internalType": "address",
          "name": "meta",
          "type": "address"
        },
        {
          "indexed": false,
          "internalType": "string",
          "name": "name",
          "type": "string"
        }
      ],
      "name": "Registered",
      "type": "event"
    },
    {
      "anonymous": false,
      "inputs": [
        {
          "indexed": false,
          "internalType": "address",
          "name": "meta",
          "type": "address"
        },
        {
          "indexed": false,
          "internalType": "address",
          "name": "sub",
          "type": "address"
        },
        {
          "indexed": false,
          "internalType": "address",
          "name": "sender",
          "type": "address"
        }
      ],
      "name": "Requested",
      "type": "event"
    },
    {
      "anonymous": false,
      "inputs": [
        {
          "indexed": false,
          "internalType": "address",
          "name": "addr1",
          "type": "address"
        },
        {
          "indexed": false,
          "internalType": "address",
          "name": "addr2",
          "type": "address"
        },
        {
          "indexed": false,
          "internalType": "address",
          "name": "sender",
          "type": "address"
        }
      ],
      "name": "Revoked",
      "type": "event"
    },
    {
      "inputs": [
        {
          "internalType": "address",
          "name": "meta",
          "type": "address"
        },
        {
          "internalType": "address",
          "name": "sub",
          "type": "address"
        }
      ],
      "name": "approve",
      "outputs": [
        {
          "internalType": "bool",
          "name": "",
          "type": "bool"
        }
      ],
      "stateMutability": "nonpayable",
      "type": "function"
    },
    {
      "inputs": [
        {
          "internalType": "address",
          "name": "addr1",
          "type": "address"
        },
        {
          "internalType": "address",
          "name": "addr2",
          "type": "address"
        }
      ],
      "name": "associate",
      "outputs": [
        {
          "internalType": "bool",
          "name": "",
          "type": "bool"
        }
      ],
      "stateMutability": "nonpayable",
      "type": "function"
    },
    {
      "inputs": [
        {
          "internalType": "address",
          "name": "meta",
          "type": "address"
        }
      ],
      "name": "findByMeta",
      "outputs": [
        {
          "internalType": "string",
          "name": "name",
          "type": "string"
        }
      ],
      "stateMutability": "view",
      "type": "function"
    },
    {
      "inputs": [
        {
          "internalType": "string",
          "name": "name",
          "type": "string"
        }
      ],
      "name": "findByName",
      "outputs": [
        {
          "internalType": "address",
          "name": "meta",
          "type": "address"
        }
      ],
      "stateMutability": "view",
      "type": "function"
    },
    {
      "inputs": [
        {
          "internalType": "string",
          "name": "name",
          "type": "string"
        }
      ],
      "name": "getAggregateEther",
      "outputs": [
        {
          "internalType": "uint256",
          "name": "",
          "type": "uint256"
        }
      ],
      "stateMutability": "view",
      "type": "function"
    },
    {
      "inputs": [
        {
          "internalType": "contract ERC721[]",
          "name": "contracts",
          "type": "address[]"
        },
        {
          "internalType": "string",
          "name": "name",
          "type": "string"
        }
      ],
      "name": "getAggregateNFTs",
      "outputs": [
        {
          "components": [
            {
              "internalType": "string",
              "name": "name",
              "type": "string"
            },
            {
              "internalType": "string",
              "name": "symbol",
              "type": "string"
            },
            {
              "internalType": "uint256",
              "name": "balance",
              "type": "uint256"
            }
          ],
          "internalType": "struct SimpleAddressCore.Asset[]",
          "name": "",
          "type": "tuple[]"
        }
      ],
      "stateMutability": "view",
      "type": "function"
    },
    {
      "inputs": [
        {
          "internalType": "string",
          "name": "name",
          "type": "string"
        }
      ],
      "name": "getAggregatePopularTokens",
      "outputs": [
        {
          "components": [
            {
              "internalType": "string",
              "name": "name",
              "type": "string"
            },
            {
              "internalType": "string",
              "name": "symbol",
              "type": "string"
            },
            {
              "internalType": "uint256",
              "name": "balance",
              "type": "uint256"
            }
          ],
          "internalType": "struct SimpleAddressCore.Asset[]",
          "name": "",
          "type": "tuple[]"
        }
      ],
      "stateMutability": "view",
      "type": "function"
    },
    {
      "inputs": [
        {
          "internalType": "contract ERC20[]",
          "name": "contracts",
          "type": "address[]"
        },
        {
          "internalType": "string",
          "name": "name",
          "type": "string"
        }
      ],
      "name": "getAggregateTokens",
      "outputs": [
        {
          "components": [
            {
              "internalType": "string",
              "name": "name",
              "type": "string"
            },
            {
              "internalType": "string",
              "name": "symbol",
              "type": "string"
            },
            {
              "internalType": "uint256",
              "name": "balance",
              "type": "uint256"
            }
          ],
          "internalType": "struct SimpleAddressCore.Asset[]",
          "name": "",
          "type": "tuple[]"
        }
      ],
      "stateMutability": "view",
      "type": "function"
    },
    {
      "inputs": [
        {
          "internalType": "string",
          "name": "name",
          "type": "string"
        }
      ],
      "name": "registerAddress",
      "outputs": [],
      "stateMutability": "nonpayable",
      "type": "function"
    },
    {
      "inputs": [
        {
          "internalType": "address",
          "name": "meta",
          "type": "address"
        },
        {
          "internalType": "address",
          "name": "sub",
          "type": "address"
        }
      ],
      "name": "revoke",
      "outputs": [
        {
          "internalType": "bool",
          "name": "",
          "type": "bool"
        }
      ],
      "stateMutability": "nonpayable",
      "type": "function"
    },
    {
      "inputs": [
        {
          "internalType": "address",
          "name": "addr",
          "type": "address"
        }
      ],
      "name": "viewAllConnections",
      "outputs": [
        {
          "internalType": "bytes32[]",
          "name": "",
          "type": "bytes32[]"
        }
      ],
      "stateMutability": "view",
      "type": "function"
    },
    {
      "inputs": [
        {
          "internalType": "address",
          "name": "addr",
          "type": "address"
        },
        {
          "internalType": "bool",
          "name": "fullApproved",
          "type": "bool"
        }
      ],
      "name": "viewConnections",
      "outputs": [
        {
          "internalType": "bytes32[]",
          "name": "",
          "type": "bytes32[]"
        }
      ],
      "stateMutability": "view",
      "type": "function"
    }
  ],
  "bytecode": "0x6080604052604051806040016040528073c7ad46e0b8a400bb3c915120d284aafba8fc473573ffffffffffffffffffffffffffffffffffffffff1673ffffffffffffffffffffffffffffffffffffffff168152602001731f9840a85d5af5bf1d1762f925bdaddc4201f98473ffffffffffffffffffffffffffffffffffffffff1673ffffffffffffffffffffffffffffffffffffffff168152506004906002620000ab929190620000c0565b50348015620000b957600080fd5b506200016e565b8280548282559060005260206000209081019282156200013c579160200282015b828111156200013b5782518260006101000a81548173ffffffffffffffffffffffffffffffffffffffff021916908373ffffffffffffffffffffffffffffffffffffffff16021790555091602001919060010190620000e1565b5b5090506200014b91906200014f565b5090565b5b808211156200016a57600081600090555060010162000150565b5090565b61432d806200017e6000396000f3fe608060405234801561001057600080fd5b50600436106100b45760003560e01c80637e5465ba116100715780637e5465ba146101d95780638c28ed7014610209578063bb1bd28f14610239578063bf40cba914610255578063dcf3fb2a14610285578063fe0fa9b8146102b5576100b4565b806315088400146100b95780631d2d5369146100e957806328c238e7146101195780634d9a3136146101495780635dc2c1b2146101795780637cfe26f5146101a9575b600080fd5b6100d360048036038101906100ce91906133d1565b6102e5565b6040516100e09190613cad565b60405180910390f35b61010360048036038101906100fe919061347d565b61079c565b6040516101109190613ccf565b60405180910390f35b610133600480360381019061012e91906134ed565b610a0a565b6040516101409190613ccf565b60405180910390f35b610163600480360381019061015e9190613532565b610ca3565b6040516101709190613c2b565b60405180910390f35b610193600480360381019061018e919061340d565b610cea565b6040516101a09190613ccf565b60405180910390f35b6101c360048036038101906101be919061336c565b610f58565b6040516101d09190613cad565b60405180910390f35b6101f360048036038101906101ee9190613395565b610ff5565b6040516102009190613cf1565b60405180910390f35b610223600480360381019061021e91906134ed565b611791565b6040516102309190613eae565b60405180910390f35b610253600480360381019061024e9190613532565b611a19565b005b61026f600480360381019061026a9190613395565b611d01565b60405161027c9190613cf1565b60405180910390f35b61029f600480360381019061029a9190613395565b611e00565b6040516102ac9190613cf1565b60405180910390f35b6102cf60048036038101906102ca919061336c565b612368565b6040516102dc9190613d0c565b60405180910390f35b60606000600260008573ffffffffffffffffffffffffffffffffffffffff1673ffffffffffffffffffffffffffffffffffffffff16815260200190815260200160002060000160000180548060200260200160405190810160405280929190818152602001828054801561037857602002820191906000526020600020905b815481526020019060010190808311610364575b505050505090506001151561038c85612439565b151514156105955760005b6103de600260008773ffffffffffffffffffffffffffffffffffffffff1673ffffffffffffffffffffffffffffffffffffffff168152602001908152602001600020612490565b81101561058f57600061043882600260008973ffffffffffffffffffffffffffffffffffffffff1673ffffffffffffffffffffffffffffffffffffffff1681526020019081526020016000206124a590919063ffffffff16565b9050600061044687836124bf565b9050600115156003600083815260200190815260200160002060060160009054906101000a900460ff161515141561047f57505061057c565b6000151586151514801561052557506001808111156104c7577f4e487b7100000000000000000000000000000000000000000000000000000000600052602160045260246000fd5b6003600083815260200190815260200160002060030160009054906101000a900460ff166001811115610523577f4e487b7100000000000000000000000000000000000000000000000000000000600052602160045260246000fd5b145b1561053157505061057c565b83838151811061056a577f4e487b7100000000000000000000000000000000000000000000000000000000600052603260045260246000fd5b60200260200101600080191681525050505b80806105879061416c565b915050610397565b50610792565b60005b6105df600260008773ffffffffffffffffffffffffffffffffffffffff1673ffffffffffffffffffffffffffffffffffffffff168152602001908152602001600020612490565b81101561079057600061063982600260008973ffffffffffffffffffffffffffffffffffffffff1673ffffffffffffffffffffffffffffffffffffffff1681526020019081526020016000206124a590919063ffffffff16565b9050600061064782886124bf565b9050600115156003600083815260200190815260200160002060060160009054906101000a900460ff161515141561068057505061077d565b6000151586151514801561072657506001808111156106c8577f4e487b7100000000000000000000000000000000000000000000000000000000600052602160045260246000fd5b6003600083815260200190815260200160002060030160019054906101000a900460ff166001811115610724577f4e487b7100000000000000000000000000000000000000000000000000000000600052602160045260246000fd5b145b1561073257505061077d565b83838151811061076b577f4e487b7100000000000000000000000000000000000000000000000000000000600052603260045260246000fd5b60200260200101600080191681525050505b80806107889061416c565b915050610598565b505b8091505092915050565b606082828080601f016020809104026020016040519081016040528093929190818152602001838380828437600081840152601f19601f82011690508083019250505050505050600073ffffffffffffffffffffffffffffffffffffffff1660008260405161080b9190613c14565b908152602001604051809103902060009054906101000a900473ffffffffffffffffffffffffffffffffffffffff1673ffffffffffffffffffffffffffffffffffffffff161415610891576040517f08c379a000000000000000000000000000000000000000000000000000000000815260040161088890613d6e565b60405180910390fd5b6000855167ffffffffffffffff8111156108d4577f4e487b7100000000000000000000000000000000000000000000000000000000600052604160045260246000fd5b60405190808252806020026020018201604052801561090d57816020015b6108fa612ff9565b8152602001906001900390816108f25790505b50905060005b86518110156109fd576109a6878281518110610958577f4e487b7100000000000000000000000000000000000000000000000000000000600052603260045260246000fd5b602002602001015160008888604051610972929190613bfb565b908152602001604051809103902060009054906101000a900473ffffffffffffffffffffffffffffffffffffffff166124f2565b8282815181106109df577f4e487b7100000000000000000000000000000000000000000000000000000000600052603260045260246000fd5b602002602001018190525080806109f59061416c565b915050610913565b5080925050509392505050565b606082828080601f016020809104026020016040519081016040528093929190818152602001838380828437600081840152601f19601f82011690508083019250505050505050600073ffffffffffffffffffffffffffffffffffffffff16600082604051610a799190613c14565b908152602001604051809103902060009054906101000a900473ffffffffffffffffffffffffffffffffffffffff1673ffffffffffffffffffffffffffffffffffffffff161415610aff576040517f08c379a0000000000000000000000000000000000000000000000000000000008152600401610af690613d6e565b60405180910390fd5b600060048054905067ffffffffffffffff811115610b46577f4e487b7100000000000000000000000000000000000000000000000000000000600052604160045260246000fd5b604051908082528060200260200182016040528015610b7f57816020015b610b6c612ff9565b815260200190600190039081610b645790505b50905060005b600480549050811015610c9757610c4060048281548110610bcf577f4e487b7100000000000000000000000000000000000000000000000000000000600052603260045260246000fd5b9060005260206000200160009054906101000a900473ffffffffffffffffffffffffffffffffffffffff1660008888604051610c0c929190613bfb565b908152602001604051809103902060009054906101000a900473ffffffffffffffffffffffffffffffffffffffff16612847565b828281518110610c79577f4e487b7100000000000000000000000000000000000000000000000000000000600052603260045260246000fd5b60200260200101819052508080610c8f9061416c565b915050610b85565b50809250505092915050565b60008082604051610cb49190613c14565b908152602001604051809103902060009054906101000a900473ffffffffffffffffffffffffffffffffffffffff169050919050565b606082828080601f016020809104026020016040519081016040528093929190818152602001838380828437600081840152601f19601f82011690508083019250505050505050600073ffffffffffffffffffffffffffffffffffffffff16600082604051610d599190613c14565b908152602001604051809103902060009054906101000a900473ffffffffffffffffffffffffffffffffffffffff1673ffffffffffffffffffffffffffffffffffffffff161415610ddf576040517f08c379a0000000000000000000000000000000000000000000000000000000008152600401610dd690613d6e565b60405180910390fd5b6000855167ffffffffffffffff811115610e22577f4e487b7100000000000000000000000000000000000000000000000000000000600052604160045260246000fd5b604051908082528060200260200182016040528015610e5b57816020015b610e48612ff9565b815260200190600190039081610e405790505b50905060005b8651811015610f4b57610ef4878281518110610ea6577f4e487b7100000000000000000000000000000000000000000000000000000000600052603260045260246000fd5b602002602001015160008888604051610ec0929190613bfb565b908152602001604051809103902060009054906101000a900473ffffffffffffffffffffffffffffffffffffffff16612847565b828281518110610f2d577f4e487b7100000000000000000000000000000000000000000000000000000000600052603260045260246000fd5b60200260200101819052508080610f439061416c565b915050610e61565b5080925050509392505050565b6060600260008373ffffffffffffffffffffffffffffffffffffffff1673ffffffffffffffffffffffffffffffffffffffff168152602001908152602001600020600001600001805480602002602001604051908101604052809291908181526020018280548015610fe957602002820191906000526020600020905b815481526020019060010190808311610fd5575b50505050509050919050565b6000826110178173ffffffffffffffffffffffffffffffffffffffff16612b9c565b15611057576040517f08c379a000000000000000000000000000000000000000000000000000000000815260040161104e90613e6e565b60405180910390fd5b826110778173ffffffffffffffffffffffffffffffffffffffff16612b9c565b156110b7576040517f08c379a00000000000000000000000000000000000000000000000000000000081526004016110ae90613e6e565b60405180910390fd5b84848173ffffffffffffffffffffffffffffffffffffffff163373ffffffffffffffffffffffffffffffffffffffff16148061111e57508073ffffffffffffffffffffffffffffffffffffffff163373ffffffffffffffffffffffffffffffffffffffff16145b61115d576040517f08c379a000000000000000000000000000000000000000000000000000000000815260040161115490613dee565b60405180910390fd5b6001151561116a88612439565b1515146111ac576040517f08c379a00000000000000000000000000000000000000000000000000000000081526004016111a390613dce565b60405180910390fd5b600015156111b987612439565b1515146111fb576040517f08c379a00000000000000000000000000000000000000000000000000000000081526004016111f290613d2e565b60405180910390fd5b600061120788886124bf565b90508773ffffffffffffffffffffffffffffffffffffffff163373ffffffffffffffffffffffffffffffffffffffff1614156113f85760006001811115611277577f4e487b7100000000000000000000000000000000000000000000000000000000600052602160045260246000fd5b6003600083815260200190815260200160002060030160009054906101000a900460ff1660018111156112d3577f4e487b7100000000000000000000000000000000000000000000000000000000600052602160045260246000fd5b14611313576040517f08c379a000000000000000000000000000000000000000000000000000000000815260040161130a90613d8e565b60405180910390fd5b61136487600260008b73ffffffffffffffffffffffffffffffffffffffff1673ffffffffffffffffffffffffffffffffffffffff168152602001908152602001600020612baf90919063ffffffff16565b611373576113728888612bdf565b5b42600360008381526020019081526020016000206005018190555060016003600083815260200190815260200160002060030160006101000a81548160ff021916908360018111156113ee577f4e487b7100000000000000000000000000000000000000000000000000000000600052602160045260246000fd5b02179055506115af565b60006001811115611432577f4e487b7100000000000000000000000000000000000000000000000000000000600052602160045260246000fd5b6003600083815260200190815260200160002060030160019054906101000a900460ff16600181111561148e577f4e487b7100000000000000000000000000000000000000000000000000000000600052602160045260246000fd5b146114ce576040517f08c379a00000000000000000000000000000000000000000000000000000000081526004016114c590613d8e565b60405180910390fd5b61151f88600260008a73ffffffffffffffffffffffffffffffffffffffff1673ffffffffffffffffffffffffffffffffffffffff168152602001908152602001600020612baf90919063ffffffff16565b61152e5761152d8888612bdf565b5b42600360008381526020019081526020016000206004018190555060016003600083815260200190815260200160002060030160016101000a81548160ff021916908360018111156115a9577f4e487b7100000000000000000000000000000000000000000000000000000000600052602160045260246000fd5b02179055505b6001808111156115e8577f4e487b7100000000000000000000000000000000000000000000000000000000600052602160045260246000fd5b6003600083815260200190815260200160002060030160009054906101000a900460ff166001811115611644577f4e487b7100000000000000000000000000000000000000000000000000000000600052602160045260246000fd5b1480156116e35750600180811115611685577f4e487b7100000000000000000000000000000000000000000000000000000000600052602160045260246000fd5b6003600083815260200190815260200160002060030160019054906101000a900460ff1660018111156116e1577f4e487b7100000000000000000000000000000000000000000000000000000000600052602160045260246000fd5b145b156117185760016003600083815260200190815260200160002060060160006101000a81548160ff0219169083151502179055505b60016003600083815260200190815260200160002060060160016101000a81548160ff0219169083151502179055507f64bdc57a1d7fc474b76b6e1fa7a6bebdab2700e6da97a0134c0937672eabd2a088883360405161177a93929190613c46565b60405180910390a160019550505050505092915050565b600082828080601f016020809104026020016040519081016040528093929190818152602001838380828437600081840152601f19601f82011690508083019250505050505050600073ffffffffffffffffffffffffffffffffffffffff166000826040516118009190613c14565b908152602001604051809103902060009054906101000a900473ffffffffffffffffffffffffffffffffffffffff1673ffffffffffffffffffffffffffffffffffffffff161415611886576040517f08c379a000000000000000000000000000000000000000000000000000000000815260040161187d90613d6e565b60405180910390fd5b6000808585604051611899929190613bfb565b908152602001604051809103902060009054906101000a900473ffffffffffffffffffffffffffffffffffffffff16905060008173ffffffffffffffffffffffffffffffffffffffff1631905060005b611930600260008573ffffffffffffffffffffffffffffffffffffffff1673ffffffffffffffffffffffffffffffffffffffff168152602001908152602001600020612490565b811015611a0c57600061198a82600260008773ffffffffffffffffffffffffffffffffffffffff1673ffffffffffffffffffffffffffffffffffffffff1681526020019081526020016000206124a590919063ffffffff16565b9050600061199885836124bf565b9050600015156003600083815260200190815260200160002060060160009054906101000a900460ff16151514156119d15750506119f9565b8173ffffffffffffffffffffffffffffffffffffffff1631846119f4919061402c565b935050505b8080611a049061416c565b9150506118e9565b5080935050505092915050565b33611a398173ffffffffffffffffffffffffffffffffffffffff16612b9c565b15611a79576040517f08c379a0000000000000000000000000000000000000000000000000000000008152600401611a7090613e6e565b60405180910390fd5b60001515611a8633612439565b151514611ac8576040517f08c379a0000000000000000000000000000000000000000000000000000000008152600401611abf90613dae565b60405180910390fd5b60001515611ad533612d4e565b151514611b17576040517f08c379a0000000000000000000000000000000000000000000000000000000008152600401611b0e90613e0e565b60405180910390fd5b60011515611b2483612ec7565b151514611b66576040517f08c379a0000000000000000000000000000000000000000000000000000000008152600401611b5d90613e4e565b60405180910390fd5b600073ffffffffffffffffffffffffffffffffffffffff16600083604051611b8e9190613c14565b908152602001604051809103902060009054906101000a900473ffffffffffffffffffffffffffffffffffffffff1673ffffffffffffffffffffffffffffffffffffffff1614611c13576040517f08c379a0000000000000000000000000000000000000000000000000000000008152600401611c0a90613e2e565b60405180910390fd5b33600083604051611c249190613c14565b908152602001604051809103902060006101000a81548173ffffffffffffffffffffffffffffffffffffffff021916908373ffffffffffffffffffffffffffffffffffffffff16021790555081600160003373ffffffffffffffffffffffffffffffffffffffff1673ffffffffffffffffffffffffffffffffffffffff1681526020019081526020016000209080519060200190611cc392919061301a565b507fb3eccf73f39b1c07947c780b2b39df2a1bb058b4037b0a42d0881ca1a028a1323383604051611cf5929190613c7d565b60405180910390a15050565b6000611d5482600260008673ffffffffffffffffffffffffffffffffffffffff1673ffffffffffffffffffffffffffffffffffffffff168152602001908152602001600020612baf90919063ffffffff16565b80611dac5750611dab83600260008573ffffffffffffffffffffffffffffffffffffffff1673ffffffffffffffffffffffffffffffffffffffff168152602001908152602001600020612baf90919063ffffffff16565b5b15611dec576040517f08c379a0000000000000000000000000000000000000000000000000000000008152600401611de390613e8e565b60405180910390fd5b611df68383612bdf565b6001905092915050565b600082611e228173ffffffffffffffffffffffffffffffffffffffff16612b9c565b15611e62576040517f08c379a0000000000000000000000000000000000000000000000000000000008152600401611e5990613e6e565b60405180910390fd5b82611e828173ffffffffffffffffffffffffffffffffffffffff16612b9c565b15611ec2576040517f08c379a0000000000000000000000000000000000000000000000000000000008152600401611eb990613e6e565b60405180910390fd5b84848173ffffffffffffffffffffffffffffffffffffffff163373ffffffffffffffffffffffffffffffffffffffff161480611f2957508073ffffffffffffffffffffffffffffffffffffffff163373ffffffffffffffffffffffffffffffffffffffff16145b611f68576040517f08c379a0000000000000000000000000000000000000000000000000000000008152600401611f5f90613dee565b60405180910390fd5b60011515611f7588612439565b151514611fb7576040517f08c379a0000000000000000000000000000000000000000000000000000000008152600401611fae90613dce565b60405180910390fd5b60001515611fc487612439565b151514612006576040517f08c379a0000000000000000000000000000000000000000000000000000000008152600401611ffd90613d2e565b60405180910390fd5b600061201288886124bf565b905060018081111561204d577f4e487b7100000000000000000000000000000000000000000000000000000000600052602160045260246000fd5b6003600083815260200190815260200160002060030160009054906101000a900460ff1660018111156120a9577f4e487b7100000000000000000000000000000000000000000000000000000000600052602160045260246000fd5b148061214757506001808111156120e9577f4e487b7100000000000000000000000000000000000000000000000000000000600052602160045260246000fd5b6003600083815260200190815260200160002060030160019054906101000a900460ff166001811115612145577f4e487b7100000000000000000000000000000000000000000000000000000000600052602160045260246000fd5b145b612186576040517f08c379a000000000000000000000000000000000000000000000000000000000815260040161217d90613d4e565b60405180910390fd5b8773ffffffffffffffffffffffffffffffffffffffff163373ffffffffffffffffffffffffffffffffffffffff1614156121da574260036000838152602001908152602001600020600501819055506121f6565b4260036000838152602001908152602001600020600401819055505b60006003600083815260200190815260200160002060030160006101000a81548160ff02191690836001811115612256577f4e487b7100000000000000000000000000000000000000000000000000000000600052602160045260246000fd5b021790555060006003600083815260200190815260200160002060030160016101000a81548160ff021916908360018111156122bb577f4e487b7100000000000000000000000000000000000000000000000000000000600052602160045260246000fd5b021790555060006003600083815260200190815260200160002060060160016101000a81548160ff02191690831515021790555060006003600083815260200190815260200160002060060160006101000a81548160ff0219169083151502179055507f793e4518136dd1f3b708e420e07e7d96e337d516abfdf5028b7a7e6f2acc8fc788883360405161235193929190613c46565b60405180910390a160019550505050505092915050565b6060600160008373ffffffffffffffffffffffffffffffffffffffff1673ffffffffffffffffffffffffffffffffffffffff16815260200190815260200160002080546123b49061413a565b80601f01602080910402602001604051908101604052809291908181526020018280546123e09061413a565b801561242d5780601f106124025761010080835404028352916020019161242d565b820191906000526020600020905b81548152906001019060200180831161241057829003601f168201915b50505050509050919050565b600080600160008473ffffffffffffffffffffffffffffffffffffffff1673ffffffffffffffffffffffffffffffffffffffff16815260200190815260200160002080546124869061413a565b9050119050919050565b600061249e82600001612ed4565b9050919050565b60006124b48360000183612ee5565b60001c905092915050565b600082826040516020016124d4929190613bcf565b60405160208183030381529060405280519060200120905092915050565b6124fa612ff9565b60008373ffffffffffffffffffffffffffffffffffffffff166370a08231846040518263ffffffff1660e01b81526004016125359190613c2b565b60206040518083038186803b15801561254d57600080fd5b505afa158015612561573d6000803e3d6000fd5b505050506040513d601f19601f8201168201806040525081019061258591906135b4565b905060005b6125d1600260008673ffffffffffffffffffffffffffffffffffffffff1673ffffffffffffffffffffffffffffffffffffffff168152602001908152602001600020612490565b81101561271e57600061262b82600260008873ffffffffffffffffffffffffffffffffffffffff1673ffffffffffffffffffffffffffffffffffffffff1681526020019081526020016000206124a590919063ffffffff16565b9050600061263986836124bf565b9050600015156003600083815260200190815260200160002060060160009054906101000a900460ff161515141561267257505061270b565b8673ffffffffffffffffffffffffffffffffffffffff166370a08231836040518263ffffffff1660e01b81526004016126ab9190613c2b565b60206040518083038186803b1580156126c357600080fd5b505afa1580156126d7573d6000803e3d6000fd5b505050506040513d601f19601f820116820180604052508101906126fb91906135b4565b84612706919061402c565b935050505b80806127169061416c565b91505061258a565b5060405180606001604052808573ffffffffffffffffffffffffffffffffffffffff166306fdde036040518163ffffffff1660e01b815260040160006040518083038186803b15801561277057600080fd5b505afa158015612784573d6000803e3d6000fd5b505050506040513d6000823e3d601f19601f820116820180604052508101906127ad9190613573565b81526020018573ffffffffffffffffffffffffffffffffffffffff166395d89b416040518163ffffffff1660e01b815260040160006040518083038186803b1580156127f857600080fd5b505afa15801561280c573d6000803e3d6000fd5b505050506040513d6000823e3d601f19601f820116820180604052508101906128359190613573565b81526020018281525091505092915050565b61284f612ff9565b60008373ffffffffffffffffffffffffffffffffffffffff166370a08231846040518263ffffffff1660e01b815260040161288a9190613c2b565b60206040518083038186803b1580156128a257600080fd5b505afa1580156128b6573d6000803e3d6000fd5b505050506040513d601f19601f820116820180604052508101906128da91906135b4565b905060005b612926600260008673ffffffffffffffffffffffffffffffffffffffff1673ffffffffffffffffffffffffffffffffffffffff168152602001908152602001600020612490565b811015612a7357600061298082600260008873ffffffffffffffffffffffffffffffffffffffff1673ffffffffffffffffffffffffffffffffffffffff1681526020019081526020016000206124a590919063ffffffff16565b9050600061298e86836124bf565b9050600015156003600083815260200190815260200160002060060160009054906101000a900460ff16151514156129c7575050612a60565b8673ffffffffffffffffffffffffffffffffffffffff166370a08231836040518263ffffffff1660e01b8152600401612a009190613c2b565b60206040518083038186803b158015612a1857600080fd5b505afa158015612a2c573d6000803e3d6000fd5b505050506040513d601f19601f82011682018060405250810190612a5091906135b4565b84612a5b919061402c565b935050505b8080612a6b9061416c565b9150506128df565b5060405180606001604052808573ffffffffffffffffffffffffffffffffffffffff166306fdde036040518163ffffffff1660e01b815260040160006040518083038186803b158015612ac557600080fd5b505afa158015612ad9573d6000803e3d6000fd5b505050506040513d6000823e3d601f19601f82011682018060405250810190612b029190613573565b81526020018573ffffffffffffffffffffffffffffffffffffffff166395d89b416040518163ffffffff1660e01b815260040160006040518083038186803b158015612b4d57600080fd5b505afa158015612b61573d6000803e3d6000fd5b505050506040513d6000823e3d601f19601f82011682018060405250810190612b8a9190613573565b81526020018281525091505092915050565b600080823b905060008111915050919050565b6000612bd7836000018373ffffffffffffffffffffffffffffffffffffffff1660001b612f36565b905092915050565b6000612beb83836124bf565b9050426003600083815260200190815260200160002060020181905550612c1282846124bf565b9050426003600083815260200190815260200160002060020181905550612c8082600260008673ffffffffffffffffffffffffffffffffffffffff1673ffffffffffffffffffffffffffffffffffffffff168152602001908152602001600020612f5990919063ffffffff16565b50612cd283600260008573ffffffffffffffffffffffffffffffffffffffff1673ffffffffffffffffffffffffffffffffffffffff168152602001908152602001600020612f5990919063ffffffff16565b507fd0f3d71465ee0cb9d0de681433863292fce6c2f05c4a155f860733c938a8f384838333604051612d0693929190613c46565b60405180910390a17fd0f3d71465ee0cb9d0de681433863292fce6c2f05c4a155f860733c938a8f384828433604051612d4193929190613c46565b60405180910390a1505050565b600080600090505b612d9d600260008573ffffffffffffffffffffffffffffffffffffffff1673ffffffffffffffffffffffffffffffffffffffff168152602001908152602001600020612490565b811015612ebc576000612e00612dfa83600260008873ffffffffffffffffffffffffffffffffffffffff1673ffffffffffffffffffffffffffffffffffffffff1681526020019081526020016000206124a590919063ffffffff16565b856124bf565b9050600180811115612e3b577f4e487b7100000000000000000000000000000000000000000000000000000000600052602160045260246000fd5b6003600083815260200190815260200160002060030160019054906101000a900460ff166001811115612e97577f4e487b7100000000000000000000000000000000000000000000000000000000600052602160045260246000fd5b1415612ea857600192505050612ec2565b508080612eb49061416c565b915050612d56565b50600090505b919050565b6000808251119050919050565b600081600001805490509050919050565b6000826000018281548110612f23577f4e487b7100000000000000000000000000000000000000000000000000000000600052603260045260246000fd5b9060005260206000200154905092915050565b600080836001016000848152602001908152602001600020541415905092915050565b6000612f81836000018373ffffffffffffffffffffffffffffffffffffffff1660001b612f89565b905092915050565b6000612f958383612f36565b612fee578260000182908060018154018082558091505060019003906000526020600020016000909190919091505582600001805490508360010160008481526020019081526020016000208190555060019050612ff3565b600090505b92915050565b60405180606001604052806060815260200160608152602001600081525090565b8280546130269061413a565b90600052602060002090601f016020900481019282613048576000855561308f565b82601f1061306157805160ff191683800117855561308f565b8280016001018555821561308f579182015b8281111561308e578251825591602001919060010190613073565b5b50905061309c91906130a0565b5090565b5b808211156130b95760008160009055506001016130a1565b5090565b60006130d06130cb84613efa565b613ec9565b905080838252602082019050828560208602820111156130ef57600080fd5b60005b8581101561311f5781613105888261328f565b8452602084019350602083019250506001810190506130f2565b5050509392505050565b600061313c61313784613f26565b613ec9565b9050808382526020820190508285602086028201111561315b57600080fd5b60005b8581101561318b578161317188826132a4565b84526020840193506020830192505060018101905061315e565b5050509392505050565b60006131a86131a384613f52565b613ec9565b9050828152602081018484840111156131c057600080fd5b6131cb8482856140f8565b509392505050565b60006131e66131e184613f52565b613ec9565b9050828152602081018484840111156131fe57600080fd5b613209848285614107565b509392505050565b60008135905061322081614284565b92915050565b600082601f83011261323757600080fd5b81356132478482602086016130bd565b91505092915050565b600082601f83011261326157600080fd5b8135613271848260208601613129565b91505092915050565b6000813590506132898161429b565b92915050565b60008135905061329e816142b2565b92915050565b6000813590506132b3816142c9565b92915050565b60008083601f8401126132cb57600080fd5b8235905067ffffffffffffffff8111156132e457600080fd5b6020830191508360018202830111156132fc57600080fd5b9250929050565b600082601f83011261331457600080fd5b8135613324848260208601613195565b91505092915050565b600082601f83011261333e57600080fd5b815161334e8482602086016131d3565b91505092915050565b600081519050613366816142e0565b92915050565b60006020828403121561337e57600080fd5b600061338c84828501613211565b91505092915050565b600080604083850312156133a857600080fd5b60006133b685828601613211565b92505060206133c785828601613211565b9150509250929050565b600080604083850312156133e457600080fd5b60006133f285828601613211565b92505060206134038582860161327a565b9150509250929050565b60008060006040848603121561342257600080fd5b600084013567ffffffffffffffff81111561343c57600080fd5b61344886828701613226565b935050602084013567ffffffffffffffff81111561346557600080fd5b613471868287016132b9565b92509250509250925092565b60008060006040848603121561349257600080fd5b600084013567ffffffffffffffff8111156134ac57600080fd5b6134b886828701613250565b935050602084013567ffffffffffffffff8111156134d557600080fd5b6134e1868287016132b9565b92509250509250925092565b6000806020838503121561350057600080fd5b600083013567ffffffffffffffff81111561351a57600080fd5b613526858286016132b9565b92509250509250929050565b60006020828403121561354457600080fd5b600082013567ffffffffffffffff81111561355e57600080fd5b61356a84828501613303565b91505092915050565b60006020828403121561358557600080fd5b600082015167ffffffffffffffff81111561359f57600080fd5b6135ab8482850161332d565b91505092915050565b6000602082840312156135c657600080fd5b60006135d484828501613357565b91505092915050565b60006135e98383613711565b60208301905092915050565b60006136018383613b5a565b905092915050565b61361281614082565b82525050565b61362961362482614082565b6141b5565b82525050565b600061363a82613fa2565b6136448185613fdd565b935061364f83613f82565b8060005b8381101561368057815161366788826135dd565b975061367283613fc3565b925050600181019050613653565b5085935050505092915050565b600061369882613fad565b6136a28185613fee565b9350836020820285016136b485613f92565b8060005b858110156136f057848403895281516136d185826135f5565b94506136dc83613fd0565b925060208a019950506001810190506136b8565b50829750879550505050505092915050565b61370b81614094565b82525050565b61371a816140a0565b82525050565b600061372c8385614021565b93506137398385846140f8565b82840190509392505050565b600061375082613fb8565b61375a8185613fff565b935061376a818560208601614107565b61377381614266565b840191505092915050565b600061378982613fb8565b6137938185614010565b93506137a3818560208601614107565b6137ac81614266565b840191505092915050565b60006137c282613fb8565b6137cc8185614021565b93506137dc818560208601614107565b80840191505092915050565b60006137f5603b83614010565b91507f496e76616c69642053756220616464726573732e2041204d657461206164647260008301527f6573732063616e6e6f74206265206120537562206164647265737300000000006020830152604082019050919050565b600061385b601983614010565b91507f4e6f20617070726f76616c20746f206265207265766f6b6564000000000000006000830152602082019050919050565b600061389b601383614010565b91507f4e616d65206e6f742072656769737465726564000000000000000000000000006000830152602082019050919050565b60006138db601783614010565b91507f417070726f76616c20616c7265616479206578697374730000000000000000006000830152602082019050919050565b600061391b601a83614010565b91507f4164647265737320616c726561647920726567697374657265640000000000006000830152602082019050919050565b600061395b601483614010565b91507f496e76616c6964204d65746120616464726573730000000000000000000000006000830152602082019050919050565b600061399b602083614010565b91507f496e73756666696369656e742061636365737320666f7220617070726f76616c6000830152602082019050919050565b60006139db602783614010565b91507f4164647265737320616c72656164792077697468696e204d657461206164647260008301527f65737328657329000000000000000000000000000000000000000000000000006020830152604082019050919050565b6000613a41601283614010565b91507f4e616d65206e6f7420617661696c61626c6500000000000000000000000000006000830152602082019050919050565b6000613a81600c83614010565b91507f496e76616c6964204e616d6500000000000000000000000000000000000000006000830152602082019050919050565b6000613ac1601e83614010565b91507f436f6e747261637420616464726573736573206e6f7420616c6c6f77656400006000830152602082019050919050565b6000613b01603183614010565b91507f4173736f63696174696f6e206578697374732e2055736520617070726f76652860008301527f29206966206e6f7420617070726f7665640000000000000000000000000000006020830152604082019050919050565b60006060830160008301518482036000860152613b778282613745565b91505060208301518482036020860152613b918282613745565b9150506040830151613ba66040860182613bb1565b508091505092915050565b613bba816140ee565b82525050565b613bc9816140ee565b82525050565b6000613bdb8285613618565b601482019150613beb8284613618565b6014820191508190509392505050565b6000613c08828486613720565b91508190509392505050565b6000613c2082846137b7565b915081905092915050565b6000602082019050613c406000830184613609565b92915050565b6000606082019050613c5b6000830186613609565b613c686020830185613609565b613c756040830184613609565b949350505050565b6000604082019050613c926000830185613609565b8181036020830152613ca4818461377e565b90509392505050565b60006020820190508181036000830152613cc7818461362f565b905092915050565b60006020820190508181036000830152613ce9818461368d565b905092915050565b6000602082019050613d066000830184613702565b92915050565b60006020820190508181036000830152613d26818461377e565b905092915050565b60006020820190508181036000830152613d47816137e8565b9050919050565b60006020820190508181036000830152613d678161384e565b9050919050565b60006020820190508181036000830152613d878161388e565b9050919050565b60006020820190508181036000830152613da7816138ce565b9050919050565b60006020820190508181036000830152613dc78161390e565b9050919050565b60006020820190508181036000830152613de78161394e565b9050919050565b60006020820190508181036000830152613e078161398e565b9050919050565b60006020820190508181036000830152613e27816139ce565b9050919050565b60006020820190508181036000830152613e4781613a34565b9050919050565b60006020820190508181036000830152613e6781613a74565b9050919050565b60006020820190508181036000830152613e8781613ab4565b9050919050565b60006020820190508181036000830152613ea781613af4565b9050919050565b6000602082019050613ec36000830184613bc0565b92915050565b6000604051905081810181811067ffffffffffffffff82111715613ef057613eef614237565b5b8060405250919050565b600067ffffffffffffffff821115613f1557613f14614237565b5b602082029050602081019050919050565b600067ffffffffffffffff821115613f4157613f40614237565b5b602082029050602081019050919050565b600067ffffffffffffffff821115613f6d57613f6c614237565b5b601f19601f8301169050602081019050919050565b6000819050602082019050919050565b6000819050602082019050919050565b600081519050919050565b600081519050919050565b600081519050919050565b6000602082019050919050565b6000602082019050919050565b600082825260208201905092915050565b600082825260208201905092915050565b600082825260208201905092915050565b600082825260208201905092915050565b600081905092915050565b6000614037826140ee565b9150614042836140ee565b9250827fffffffffffffffffffffffffffffffffffffffffffffffffffffffffffffffff03821115614077576140766141d9565b5b828201905092915050565b600061408d826140ce565b9050919050565b60008115159050919050565b6000819050919050565b60006140b582614082565b9050919050565b60006140c782614082565b9050919050565b600073ffffffffffffffffffffffffffffffffffffffff82169050919050565b6000819050919050565b82818337600083830152505050565b60005b8381101561412557808201518184015260208101905061410a565b83811115614134576000848401525b50505050565b6000600282049050600182168061415257607f821691505b6020821081141561416657614165614208565b5b50919050565b6000614177826140ee565b91507fffffffffffffffffffffffffffffffffffffffffffffffffffffffffffffffff8214156141aa576141a96141d9565b5b600182019050919050565b60006141c0826141c7565b9050919050565b60006141d282614277565b9050919050565b7f4e487b7100000000000000000000000000000000000000000000000000000000600052601160045260246000fd5b7f4e487b7100000000000000000000000000000000000000000000000000000000600052602260045260246000fd5b7f4e487b7100000000000000000000000000000000000000000000000000000000600052604160045260246000fd5b6000601f19601f8301169050919050565b60008160601b9050919050565b61428d81614082565b811461429857600080fd5b50565b6142a481614094565b81146142af57600080fd5b50565b6142bb816140aa565b81146142c657600080fd5b50565b6142d2816140bc565b81146142dd57600080fd5b50565b6142e9816140ee565b81146142f457600080fd5b5056fea26469706673582212201b8800b04e32c9de1a6201019b06e48f1e0f65b506300285a9f5d9b1ea36af3f64736f6c63430008000033",
  "linkReferences": {},
  "deployedLinkReferences": {}
}